{
  "_format": "hh-sol-artifact-1",
  "contractName": "Exchange",
  "sourceName": "contracts/Exchange.sol",
  "abi": [
    {
      "inputs": [
        {
          "internalType": "address",
          "name": "_token",
          "type": "address"
        }
      ],
      "stateMutability": "nonpayable",
      "type": "constructor"
    },
    {
      "anonymous": false,
      "inputs": [
        {
          "indexed": true,
          "internalType": "address",
          "name": "owner",
          "type": "address"
        },
        {
          "indexed": true,
          "internalType": "address",
          "name": "spender",
          "type": "address"
        },
        {
          "indexed": false,
          "internalType": "uint256",
          "name": "value",
          "type": "uint256"
        }
      ],
      "name": "Approval",
      "type": "event"
    },
    {
      "anonymous": false,
      "inputs": [
        {
          "indexed": false,
          "internalType": "uint256",
          "name": "sender",
          "type": "uint256"
        },
        {
          "indexed": false,
          "internalType": "uint256",
          "name": "supply",
          "type": "uint256"
        },
        {
          "indexed": false,
          "internalType": "uint256",
          "name": "reserve",
          "type": "uint256"
        }
      ],
      "name": "LiquidityAdded",
      "type": "event"
    },
    {
      "anonymous": false,
      "inputs": [
        {
          "indexed": true,
          "internalType": "address",
          "name": "from",
          "type": "address"
        },
        {
          "indexed": true,
          "internalType": "address",
          "name": "to",
          "type": "address"
        },
        {
          "indexed": false,
          "internalType": "uint256",
          "name": "value",
          "type": "uint256"
        }
      ],
      "name": "Transfer",
      "type": "event"
    },
    {
      "inputs": [
        {
          "internalType": "uint256",
          "name": "_tokenAmount",
          "type": "uint256"
        }
      ],
      "name": "addLiquidity",
      "outputs": [
        {
          "internalType": "uint256",
          "name": "",
          "type": "uint256"
        }
      ],
      "stateMutability": "payable",
      "type": "function"
    },
    {
      "inputs": [
        {
          "internalType": "address",
          "name": "owner",
          "type": "address"
        },
        {
          "internalType": "address",
          "name": "spender",
          "type": "address"
        }
      ],
      "name": "allowance",
      "outputs": [
        {
          "internalType": "uint256",
          "name": "",
          "type": "uint256"
        }
      ],
      "stateMutability": "view",
      "type": "function"
    },
    {
      "inputs": [
        {
          "internalType": "address",
          "name": "spender",
          "type": "address"
        },
        {
          "internalType": "uint256",
          "name": "amount",
          "type": "uint256"
        }
      ],
      "name": "approve",
      "outputs": [
        {
          "internalType": "bool",
          "name": "",
          "type": "bool"
        }
      ],
      "stateMutability": "nonpayable",
      "type": "function"
    },
    {
      "inputs": [
        {
          "internalType": "address",
          "name": "account",
          "type": "address"
        }
      ],
      "name": "balanceOf",
      "outputs": [
        {
          "internalType": "uint256",
          "name": "",
          "type": "uint256"
        }
      ],
      "stateMutability": "view",
      "type": "function"
    },
    {
      "inputs": [],
      "name": "decimals",
      "outputs": [
        {
          "internalType": "uint8",
          "name": "",
          "type": "uint8"
        }
      ],
      "stateMutability": "view",
      "type": "function"
    },
    {
      "inputs": [
        {
          "internalType": "address",
          "name": "spender",
          "type": "address"
        },
        {
          "internalType": "uint256",
          "name": "subtractedValue",
          "type": "uint256"
        }
      ],
      "name": "decreaseAllowance",
      "outputs": [
        {
          "internalType": "bool",
          "name": "",
          "type": "bool"
        }
      ],
      "stateMutability": "nonpayable",
      "type": "function"
    },
    {
      "inputs": [
        {
          "internalType": "uint256",
          "name": "_minTokens",
          "type": "uint256"
        }
      ],
      "name": "ethToTokenSwap",
      "outputs": [],
      "stateMutability": "payable",
      "type": "function"
    },
    {
      "inputs": [
        {
          "internalType": "uint256",
          "name": "inputAmount",
          "type": "uint256"
        },
        {
          "internalType": "uint256",
          "name": "inputReserve",
          "type": "uint256"
        },
        {
          "internalType": "uint256",
          "name": "outputReserve",
          "type": "uint256"
        }
      ],
      "name": "getAmount",
      "outputs": [
        {
          "internalType": "uint256",
          "name": "",
          "type": "uint256"
        }
      ],
      "stateMutability": "pure",
      "type": "function"
    },
    {
      "inputs": [
        {
          "internalType": "uint256",
          "name": "_tokenSold",
          "type": "uint256"
        }
      ],
      "name": "getEthAmount",
      "outputs": [
        {
          "internalType": "uint256",
          "name": "",
          "type": "uint256"
        }
      ],
      "stateMutability": "view",
      "type": "function"
    },
    {
      "inputs": [],
      "name": "getReserve",
      "outputs": [
        {
          "internalType": "uint256",
          "name": "",
          "type": "uint256"
        }
      ],
      "stateMutability": "view",
      "type": "function"
    },
    {
      "inputs": [
        {
          "internalType": "uint256",
          "name": "_ethSold",
          "type": "uint256"
        }
      ],
      "name": "getTokenAmount",
      "outputs": [
        {
          "internalType": "uint256",
          "name": "",
          "type": "uint256"
        }
      ],
      "stateMutability": "view",
      "type": "function"
    },
    {
      "inputs": [
        {
          "internalType": "address",
          "name": "spender",
          "type": "address"
        },
        {
          "internalType": "uint256",
          "name": "addedValue",
          "type": "uint256"
        }
      ],
      "name": "increaseAllowance",
      "outputs": [
        {
          "internalType": "bool",
          "name": "",
          "type": "bool"
        }
      ],
      "stateMutability": "nonpayable",
      "type": "function"
    },
    {
      "inputs": [],
      "name": "name",
      "outputs": [
        {
          "internalType": "string",
          "name": "",
          "type": "string"
        }
      ],
      "stateMutability": "view",
      "type": "function"
    },
    {
      "inputs": [
        {
          "internalType": "uint256",
          "name": "_amount",
          "type": "uint256"
        }
      ],
      "name": "removeLiquidity",
      "outputs": [
        {
          "internalType": "uint256",
          "name": "",
          "type": "uint256"
        },
        {
          "internalType": "uint256",
          "name": "",
          "type": "uint256"
        }
      ],
      "stateMutability": "nonpayable",
      "type": "function"
    },
    {
      "inputs": [],
      "name": "symbol",
      "outputs": [
        {
          "internalType": "string",
          "name": "",
          "type": "string"
        }
      ],
      "stateMutability": "view",
      "type": "function"
    },
    {
      "inputs": [],
      "name": "tokenAddress",
      "outputs": [
        {
          "internalType": "address",
          "name": "",
          "type": "address"
        }
      ],
      "stateMutability": "view",
      "type": "function"
    },
    {
      "inputs": [
        {
          "internalType": "uint256",
          "name": "_tokensSold",
          "type": "uint256"
        },
        {
          "internalType": "uint256",
          "name": "_minEth",
          "type": "uint256"
        }
      ],
      "name": "tokenToEthSwap",
      "outputs": [],
      "stateMutability": "nonpayable",
      "type": "function"
    },
    {
      "inputs": [],
      "name": "totalSupply",
      "outputs": [
        {
          "internalType": "uint256",
          "name": "",
          "type": "uint256"
        }
      ],
      "stateMutability": "view",
      "type": "function"
    },
    {
      "inputs": [
        {
          "internalType": "address",
          "name": "to",
          "type": "address"
        },
        {
          "internalType": "uint256",
          "name": "amount",
          "type": "uint256"
        }
      ],
      "name": "transfer",
      "outputs": [
        {
          "internalType": "bool",
          "name": "",
          "type": "bool"
        }
      ],
      "stateMutability": "nonpayable",
      "type": "function"
    },
    {
      "inputs": [
        {
          "internalType": "address",
          "name": "from",
          "type": "address"
        },
        {
          "internalType": "address",
          "name": "to",
          "type": "address"
        },
        {
          "internalType": "uint256",
          "name": "amount",
          "type": "uint256"
        }
      ],
      "name": "transferFrom",
      "outputs": [
        {
          "internalType": "bool",
          "name": "",
          "type": "bool"
        }
      ],
      "stateMutability": "nonpayable",
      "type": "function"
    }
  ],
  "bytecode": "0x60806040523480156200001157600080fd5b5060405162002f6438038062002f648339818101604052810190620000379190620002ac565b6040518060400160405280600a81526020017f4d7945786368616e6765000000000000000000000000000000000000000000008152506040518060400160405280600381526020017f4d455800000000000000000000000000000000000000000000000000000000008152508160039080519060200190620000bb92919062000192565b508060049080519060200190620000d492919062000192565b505050600073ffffffffffffffffffffffffffffffffffffffff168173ffffffffffffffffffffffffffffffffffffffff1614156200014a576040517f08c379a000000000000000000000000000000000000000000000000000000000815260040162000141906200033f565b60405180910390fd5b80600560006101000a81548173ffffffffffffffffffffffffffffffffffffffff021916908373ffffffffffffffffffffffffffffffffffffffff16021790555050620003c6565b828054620001a09062000390565b90600052602060002090601f016020900481019282620001c4576000855562000210565b82601f10620001df57805160ff191683800117855562000210565b8280016001018555821562000210579182015b828111156200020f578251825591602001919060010190620001f2565b5b5090506200021f919062000223565b5090565b5b808211156200023e57600081600090555060010162000224565b5090565b600080fd5b600073ffffffffffffffffffffffffffffffffffffffff82169050919050565b6000620002748262000247565b9050919050565b620002868162000267565b81146200029257600080fd5b50565b600081519050620002a6816200027b565b92915050565b600060208284031215620002c557620002c462000242565b5b6000620002d58482850162000295565b91505092915050565b600082825260208201905092915050565b7f696e76616c696420746f6b656e20616464726573730000000000000000000000600082015250565b600062000327601583620002de565b91506200033482620002ef565b602082019050919050565b600060208201905081810360008301526200035a8162000318565b9050919050565b7f4e487b7100000000000000000000000000000000000000000000000000000000600052602260045260246000fd5b60006002820490506001821680620003a957607f821691505b60208210811415620003c057620003bf62000361565b5b50919050565b612b8e80620003d66000396000f3fe60806040526004361061011f5760003560e01c80638fc7a25d116100a0578063a9059cbb11610064578063a9059cbb1461043f578063c2507ac11461047c578063dd62ed3e146104b9578063e0486c8a146104f6578063f979dcd71461051f5761011f565b80638fc7a25d1461033157806395d89b411461036e5780639c8f9f23146103995780639d76ea58146103d7578063a457c2d7146104025761011f565b8063313ce567116100e7578063313ce56714610231578063395093511461025c57806351c6590a1461029957806359bf5d39146102c957806370a08231146102f45761011f565b806306fdde0314610124578063095ea7b31461014f57806318160ddd1461018c57806323b872dd146101b757806329c45cb6146101f4575b600080fd5b34801561013057600080fd5b5061013961053b565b6040516101469190611c25565b60405180910390f35b34801561015b57600080fd5b5061017660048036038101906101719190611ce0565b6105cd565b6040516101839190611d3b565b60405180910390f35b34801561019857600080fd5b506101a16105f0565b6040516101ae9190611d65565b60405180910390f35b3480156101c357600080fd5b506101de60048036038101906101d99190611d80565b6105fa565b6040516101eb9190611d3b565b60405180910390f35b34801561020057600080fd5b5061021b60048036038101906102169190611dd3565b610629565b6040516102289190611d65565b60405180910390f35b34801561023d57600080fd5b506102466106ce565b6040516102539190611e42565b60405180910390f35b34801561026857600080fd5b50610283600480360381019061027e9190611ce0565b6106d7565b6040516102909190611d3b565b60405180910390f35b6102b360048036038101906102ae9190611e5d565b610781565b6040516102c09190611d65565b60405180910390f35b3480156102d557600080fd5b506102de6109f1565b6040516102eb9190611d65565b60405180910390f35b34801561030057600080fd5b5061031b60048036038101906103169190611e8a565b610a94565b6040516103289190611d65565b60405180910390f35b34801561033d57600080fd5b5061035860048036038101906103539190611e5d565b610adc565b6040516103659190611d65565b60405180910390f35b34801561037a57600080fd5b50610383610b3f565b6040516103909190611c25565b60405180910390f35b3480156103a557600080fd5b506103c060048036038101906103bb9190611e5d565b610bd1565b6040516103ce929190611eb7565b60405180910390f35b3480156103e357600080fd5b506103ec610db2565b6040516103f99190611eef565b60405180910390f35b34801561040e57600080fd5b5061042960048036038101906104249190611ce0565b610dd8565b6040516104369190611d3b565b60405180910390f35b34801561044b57600080fd5b5061046660048036038101906104619190611ce0565b610ec2565b6040516104739190611d3b565b60405180910390f35b34801561048857600080fd5b506104a3600480360381019061049e9190611e5d565b610ee5565b6040516104b09190611d65565b60405180910390f35b3480156104c557600080fd5b506104e060048036038101906104db9190611f0a565b610f48565b6040516104ed9190611d65565b60405180910390f35b34801561050257600080fd5b5061051d60048036038101906105189190611f4a565b610fcf565b005b61053960048036038101906105349190611e5d565b611219565b005b60606003805461054a90611fb9565b80601f016020809104026020016040519081016040528092919081815260200182805461057690611fb9565b80156105c35780601f10610598576101008083540402835291602001916105c3565b820191906000526020600020905b8154815290600101906020018083116105a657829003601f168201915b5050505050905090565b6000806105d861136b565b90506105e5818585611373565b600191505092915050565b6000600254905090565b60008061060561136b565b905061061285828561153e565b61061d8585856115ca565b60019150509392505050565b6000808311801561063a5750600082115b610679576040517f08c379a000000000000000000000000000000000000000000000000000000000815260040161067090612037565b60405180910390fd5b60006063856106889190612086565b9050600083826106989190612086565b90506000826064876106aa9190612086565b6106b491906120e0565b905080826106c29190612165565b93505050509392505050565b60006012905090565b6000806106e261136b565b9050610776818585600160008673ffffffffffffffffffffffffffffffffffffffff1673ffffffffffffffffffffffffffffffffffffffff16815260200190815260200160002060008973ffffffffffffffffffffffffffffffffffffffff1673ffffffffffffffffffffffffffffffffffffffff1681526020019081526020016000205461077191906120e0565b611373565b600191505092915050565b60008061078c6109f1565b1415610853576000600560009054906101000a900473ffffffffffffffffffffffffffffffffffffffff1690508073ffffffffffffffffffffffffffffffffffffffff166323b872dd3330866040518463ffffffff1660e01b81526004016107f693929190612196565b6020604051808303816000875af1158015610815573d6000803e3d6000fd5b505050506040513d601f19601f8201168201806040525081019061083991906121f9565b506000479050610849338261184b565b80925050506109ec565b600034476108619190612226565b9050600061086d6109f1565b9050600082823461087e9190612086565b6108889190612165565b9050808510156108cd576040517f08c379a00000000000000000000000000000000000000000000000000000000081526004016108c4906122a6565b60405180910390fd5b6000600560009054906101000a900473ffffffffffffffffffffffffffffffffffffffff1690508073ffffffffffffffffffffffffffffffffffffffff166323b872dd3330856040518463ffffffff1660e01b815260040161093193929190612196565b6020604051808303816000875af1158015610950573d6000803e3d6000fd5b505050506040513d601f19601f8201168201806040525081019061097491906121f9565b506000846109806105f0565b3461098b9190612086565b6109959190612165565b90507fd7f28048575eead8851d024ead087913957dfb4fd1a02b4d1573f5352a5a2be3346109c16105f0565b876040516109d1939291906122c6565b60405180910390a16109e3338261184b565b80955050505050505b919050565b6000600560009054906101000a900473ffffffffffffffffffffffffffffffffffffffff1673ffffffffffffffffffffffffffffffffffffffff166370a08231306040518263ffffffff1660e01b8152600401610a4e9190611eef565b602060405180830381865afa158015610a6b573d6000803e3d6000fd5b505050506040513d601f19601f82011682018060405250810190610a8f9190612312565b905090565b60008060008373ffffffffffffffffffffffffffffffffffffffff1673ffffffffffffffffffffffffffffffffffffffff168152602001908152602001600020549050919050565b6000808211610b20576040517f08c379a0000000000000000000000000000000000000000000000000000000008152600401610b179061238b565b60405180910390fd5b6000610b2a6109f1565b9050610b37838247610629565b915050919050565b606060048054610b4e90611fb9565b80601f0160208091040260200160405190810160405280929190818152602001828054610b7a90611fb9565b8015610bc75780601f10610b9c57610100808354040283529160200191610bc7565b820191906000526020600020905b815481529060010190602001808311610baa57829003601f168201915b5050505050905090565b60008060008311610c17576040517f08c379a0000000000000000000000000000000000000000000000000000000008152600401610c0e906123f7565b60405180910390fd5b6000610c2233610a94565b905083811015610c67576040517f08c379a0000000000000000000000000000000000000000000000000000000008152600401610c5e90612463565b60405180910390fd5b6000610c716105f0565b8547610c7d9190612086565b610c879190612165565b90506000610c936105f0565b86610c9c6109f1565b610ca69190612086565b610cb09190612165565b9050610cbc33876119ab565b3373ffffffffffffffffffffffffffffffffffffffff166108fc839081150290604051600060405180830381858888f19350505050158015610d02573d6000803e3d6000fd5b50600560009054906101000a900473ffffffffffffffffffffffffffffffffffffffff1673ffffffffffffffffffffffffffffffffffffffff1663a9059cbb33836040518363ffffffff1660e01b8152600401610d60929190612483565b6020604051808303816000875af1158015610d7f573d6000803e3d6000fd5b505050506040513d601f19601f82011682018060405250810190610da391906121f9565b50818194509450505050915091565b600560009054906101000a900473ffffffffffffffffffffffffffffffffffffffff1681565b600080610de361136b565b90506000600160008373ffffffffffffffffffffffffffffffffffffffff1673ffffffffffffffffffffffffffffffffffffffff16815260200190815260200160002060008673ffffffffffffffffffffffffffffffffffffffff1673ffffffffffffffffffffffffffffffffffffffff16815260200190815260200160002054905083811015610ea9576040517f08c379a0000000000000000000000000000000000000000000000000000000008152600401610ea09061251e565b60405180910390fd5b610eb68286868403611373565b60019250505092915050565b600080610ecd61136b565b9050610eda8185856115ca565b600191505092915050565b6000808211610f29576040517f08c379a0000000000000000000000000000000000000000000000000000000008152600401610f209061258a565b60405180910390fd5b6000610f336109f1565b9050610f40834783610629565b915050919050565b6000600160008473ffffffffffffffffffffffffffffffffffffffff1673ffffffffffffffffffffffffffffffffffffffff16815260200190815260200160002060008373ffffffffffffffffffffffffffffffffffffffff1673ffffffffffffffffffffffffffffffffffffffff16815260200190815260200160002054905092915050565b6000600560009054906101000a900473ffffffffffffffffffffffffffffffffffffffff1673ffffffffffffffffffffffffffffffffffffffff166370a08231336040518263ffffffff1660e01b815260040161102c9190611eef565b602060405180830381865afa158015611049573d6000803e3d6000fd5b505050506040513d601f19601f8201168201806040525081019061106d9190612312565b905060008311801561107f5750600081115b801561108b5750828110155b6110ca576040517f08c379a00000000000000000000000000000000000000000000000000000000081526004016110c190612463565b60405180910390fd5b60006110d46109f1565b905060006110e3858347610629565b905083811015611128576040517f08c379a000000000000000000000000000000000000000000000000000000000815260040161111f906125f6565b60405180910390fd5b600560009054906101000a900473ffffffffffffffffffffffffffffffffffffffff1673ffffffffffffffffffffffffffffffffffffffff166323b872dd3330886040518463ffffffff1660e01b815260040161118793929190612196565b6020604051808303816000875af11580156111a6573d6000803e3d6000fd5b505050506040513d601f19601f820116820180604052508101906111ca91906121f9565b503373ffffffffffffffffffffffffffffffffffffffff166108fc829081150290604051600060405180830381858888f19350505050158015611211573d6000803e3d6000fd5b505050505050565b6000341161125c576040517f08c379a000000000000000000000000000000000000000000000000000000000815260040161125390612662565b60405180910390fd5b60006112666109f1565b9050600061128034344761127a9190612226565b84610629565b9050828110156112c5576040517f08c379a00000000000000000000000000000000000000000000000000000000081526004016112bc906125f6565b60405180910390fd5b600560009054906101000a900473ffffffffffffffffffffffffffffffffffffffff1673ffffffffffffffffffffffffffffffffffffffff1663a9059cbb33836040518363ffffffff1660e01b8152600401611322929190612483565b6020604051808303816000875af1158015611341573d6000803e3d6000fd5b505050506040513d601f19601f8201168201806040525081019061136591906121f9565b50505050565b600033905090565b600073ffffffffffffffffffffffffffffffffffffffff168373ffffffffffffffffffffffffffffffffffffffff1614156113e3576040517f08c379a00000000000000000000000000000000000000000000000000000000081526004016113da906126f4565b60405180910390fd5b600073ffffffffffffffffffffffffffffffffffffffff168273ffffffffffffffffffffffffffffffffffffffff161415611453576040517f08c379a000000000000000000000000000000000000000000000000000000000815260040161144a90612786565b60405180910390fd5b80600160008573ffffffffffffffffffffffffffffffffffffffff1673ffffffffffffffffffffffffffffffffffffffff16815260200190815260200160002060008473ffffffffffffffffffffffffffffffffffffffff1673ffffffffffffffffffffffffffffffffffffffff168152602001908152602001600020819055508173ffffffffffffffffffffffffffffffffffffffff168373ffffffffffffffffffffffffffffffffffffffff167f8c5be1e5ebec7d5bd14f71427d1e84f3dd0314c0f7b2291e5b200ac8c7c3b925836040516115319190611d65565b60405180910390a3505050565b600061154a8484610f48565b90507fffffffffffffffffffffffffffffffffffffffffffffffffffffffffffffffff81146115c457818110156115b6576040517f08c379a00000000000000000000000000000000000000000000000000000000081526004016115ad906127f2565b60405180910390fd5b6115c38484848403611373565b5b50505050565b600073ffffffffffffffffffffffffffffffffffffffff168373ffffffffffffffffffffffffffffffffffffffff16141561163a576040517f08c379a000000000000000000000000000000000000000000000000000000000815260040161163190612884565b60405180910390fd5b600073ffffffffffffffffffffffffffffffffffffffff168273ffffffffffffffffffffffffffffffffffffffff1614156116aa576040517f08c379a00000000000000000000000000000000000000000000000000000000081526004016116a190612916565b60405180910390fd5b6116b5838383611b82565b60008060008573ffffffffffffffffffffffffffffffffffffffff1673ffffffffffffffffffffffffffffffffffffffff1681526020019081526020016000205490508181101561173b576040517f08c379a0000000000000000000000000000000000000000000000000000000008152600401611732906129a8565b60405180910390fd5b8181036000808673ffffffffffffffffffffffffffffffffffffffff1673ffffffffffffffffffffffffffffffffffffffff16815260200190815260200160002081905550816000808573ffffffffffffffffffffffffffffffffffffffff1673ffffffffffffffffffffffffffffffffffffffff16815260200190815260200160002060008282546117ce91906120e0565b925050819055508273ffffffffffffffffffffffffffffffffffffffff168473ffffffffffffffffffffffffffffffffffffffff167fddf252ad1be2c89b69c2b068fc378daa952ba7f163c4a11628f55a4df523b3ef846040516118329190611d65565b60405180910390a3611845848484611b87565b50505050565b600073ffffffffffffffffffffffffffffffffffffffff168273ffffffffffffffffffffffffffffffffffffffff1614156118bb576040517f08c379a00000000000000000000000000000000000000000000000000000000081526004016118b290612a14565b60405180910390fd5b6118c760008383611b82565b80600260008282546118d991906120e0565b92505081905550806000808473ffffffffffffffffffffffffffffffffffffffff1673ffffffffffffffffffffffffffffffffffffffff168152602001908152602001600020600082825461192e91906120e0565b925050819055508173ffffffffffffffffffffffffffffffffffffffff16600073ffffffffffffffffffffffffffffffffffffffff167fddf252ad1be2c89b69c2b068fc378daa952ba7f163c4a11628f55a4df523b3ef836040516119939190611d65565b60405180910390a36119a760008383611b87565b5050565b600073ffffffffffffffffffffffffffffffffffffffff168273ffffffffffffffffffffffffffffffffffffffff161415611a1b576040517f08c379a0000000000000000000000000000000000000000000000000000000008152600401611a1290612aa6565b60405180910390fd5b611a2782600083611b82565b60008060008473ffffffffffffffffffffffffffffffffffffffff1673ffffffffffffffffffffffffffffffffffffffff16815260200190815260200160002054905081811015611aad576040517f08c379a0000000000000000000000000000000000000000000000000000000008152600401611aa490612b38565b60405180910390fd5b8181036000808573ffffffffffffffffffffffffffffffffffffffff1673ffffffffffffffffffffffffffffffffffffffff168152602001908152602001600020819055508160026000828254611b049190612226565b92505081905550600073ffffffffffffffffffffffffffffffffffffffff168373ffffffffffffffffffffffffffffffffffffffff167fddf252ad1be2c89b69c2b068fc378daa952ba7f163c4a11628f55a4df523b3ef84604051611b699190611d65565b60405180910390a3611b7d83600084611b87565b505050565b505050565b505050565b600081519050919050565b600082825260208201905092915050565b60005b83811015611bc6578082015181840152602081019050611bab565b83811115611bd5576000848401525b50505050565b6000601f19601f8301169050919050565b6000611bf782611b8c565b611c018185611b97565b9350611c11818560208601611ba8565b611c1a81611bdb565b840191505092915050565b60006020820190508181036000830152611c3f8184611bec565b905092915050565b600080fd5b600073ffffffffffffffffffffffffffffffffffffffff82169050919050565b6000611c7782611c4c565b9050919050565b611c8781611c6c565b8114611c9257600080fd5b50565b600081359050611ca481611c7e565b92915050565b6000819050919050565b611cbd81611caa565b8114611cc857600080fd5b50565b600081359050611cda81611cb4565b92915050565b60008060408385031215611cf757611cf6611c47565b5b6000611d0585828601611c95565b9250506020611d1685828601611ccb565b9150509250929050565b60008115159050919050565b611d3581611d20565b82525050565b6000602082019050611d506000830184611d2c565b92915050565b611d5f81611caa565b82525050565b6000602082019050611d7a6000830184611d56565b92915050565b600080600060608486031215611d9957611d98611c47565b5b6000611da786828701611c95565b9350506020611db886828701611c95565b9250506040611dc986828701611ccb565b9150509250925092565b600080600060608486031215611dec57611deb611c47565b5b6000611dfa86828701611ccb565b9350506020611e0b86828701611ccb565b9250506040611e1c86828701611ccb565b9150509250925092565b600060ff82169050919050565b611e3c81611e26565b82525050565b6000602082019050611e576000830184611e33565b92915050565b600060208284031215611e7357611e72611c47565b5b6000611e8184828501611ccb565b91505092915050565b600060208284031215611ea057611e9f611c47565b5b6000611eae84828501611c95565b91505092915050565b6000604082019050611ecc6000830185611d56565b611ed96020830184611d56565b9392505050565b611ee981611c6c565b82525050565b6000602082019050611f046000830184611ee0565b92915050565b60008060408385031215611f2157611f20611c47565b5b6000611f2f85828601611c95565b9250506020611f4085828601611c95565b9150509250929050565b60008060408385031215611f6157611f60611c47565b5b6000611f6f85828601611ccb565b9250506020611f8085828601611ccb565b9150509250929050565b7f4e487b7100000000000000000000000000000000000000000000000000000000600052602260045260246000fd5b60006002820490506001821680611fd157607f821691505b60208210811415611fe557611fe4611f8a565b5b50919050565b7f696e76616c696420726573657276657300000000000000000000000000000000600082015250565b6000612021601083611b97565b915061202c82611feb565b602082019050919050565b6000602082019050818103600083015261205081612014565b9050919050565b7f4e487b7100000000000000000000000000000000000000000000000000000000600052601160045260246000fd5b600061209182611caa565b915061209c83611caa565b9250817fffffffffffffffffffffffffffffffffffffffffffffffffffffffffffffffff04831182151516156120d5576120d4612057565b5b828202905092915050565b60006120eb82611caa565b91506120f683611caa565b9250827fffffffffffffffffffffffffffffffffffffffffffffffffffffffffffffffff0382111561212b5761212a612057565b5b828201905092915050565b7f4e487b7100000000000000000000000000000000000000000000000000000000600052601260045260246000fd5b600061217082611caa565b915061217b83611caa565b92508261218b5761218a612136565b5b828204905092915050565b60006060820190506121ab6000830186611ee0565b6121b86020830185611ee0565b6121c56040830184611d56565b949350505050565b6121d681611d20565b81146121e157600080fd5b50565b6000815190506121f3816121cd565b92915050565b60006020828403121561220f5761220e611c47565b5b600061221d848285016121e4565b91505092915050565b600061223182611caa565b915061223c83611caa565b92508282101561224f5761224e612057565b5b828203905092915050565b7f696e73756666696369656e7420746f6b656e20616d6f756e7400000000000000600082015250565b6000612290601983611b97565b915061229b8261225a565b602082019050919050565b600060208201905081810360008301526122bf81612283565b9050919050565b60006060820190506122db6000830186611d56565b6122e86020830185611d56565b6122f56040830184611d56565b949350505050565b60008151905061230c81611cb4565b92915050565b60006020828403121561232857612327611c47565b5b6000612336848285016122fd565b91505092915050565b7f746f6b656e536f6c6420697320746f6f20736d616c6c00000000000000000000600082015250565b6000612375601683611b97565b91506123808261233f565b602082019050919050565b600060208201905081810360008301526123a481612368565b9050919050565b7f696e76616c696420616d6f756e74000000000000000000000000000000000000600082015250565b60006123e1600e83611b97565b91506123ec826123ab565b602082019050919050565b60006020820190508181036000830152612410816123d4565b9050919050565b7f6e6f7420656e6f75676820746f6b656e73000000000000000000000000000000600082015250565b600061244d601183611b97565b915061245882612417565b602082019050919050565b6000602082019050818103600083015261247c81612440565b9050919050565b60006040820190506124986000830185611ee0565b6124a56020830184611d56565b9392505050565b7f45524332303a2064656372656173656420616c6c6f77616e63652062656c6f7760008201527f207a65726f000000000000000000000000000000000000000000000000000000602082015250565b6000612508602583611b97565b9150612513826124ac565b604082019050919050565b60006020820190508181036000830152612537816124fb565b9050919050565b7f657468536f6c6420697320746f6f20736d616c6c000000000000000000000000600082015250565b6000612574601483611b97565b915061257f8261253e565b602082019050919050565b600060208201905081810360008301526125a381612567565b9050919050565b7f696e73756666696369656e74206f757470757420616d6f756e74000000000000600082015250565b60006125e0601a83611b97565b91506125eb826125aa565b602082019050919050565b6000602082019050818103600083015261260f816125d3565b9050919050565b7f6e6f7420656e6f75676820657468657200000000000000000000000000000000600082015250565b600061264c601083611b97565b915061265782612616565b602082019050919050565b6000602082019050818103600083015261267b8161263f565b9050919050565b7f45524332303a20617070726f76652066726f6d20746865207a65726f2061646460008201527f7265737300000000000000000000000000000000000000000000000000000000602082015250565b60006126de602483611b97565b91506126e982612682565b604082019050919050565b6000602082019050818103600083015261270d816126d1565b9050919050565b7f45524332303a20617070726f766520746f20746865207a65726f20616464726560008201527f7373000000000000000000000000000000000000000000000000000000000000602082015250565b6000612770602283611b97565b915061277b82612714565b604082019050919050565b6000602082019050818103600083015261279f81612763565b9050919050565b7f45524332303a20696e73756666696369656e7420616c6c6f77616e6365000000600082015250565b60006127dc601d83611b97565b91506127e7826127a6565b602082019050919050565b6000602082019050818103600083015261280b816127cf565b9050919050565b7f45524332303a207472616e736665722066726f6d20746865207a65726f20616460008201527f6472657373000000000000000000000000000000000000000000000000000000602082015250565b600061286e602583611b97565b915061287982612812565b604082019050919050565b6000602082019050818103600083015261289d81612861565b9050919050565b7f45524332303a207472616e7366657220746f20746865207a65726f206164647260008201527f6573730000000000000000000000000000000000000000000000000000000000602082015250565b6000612900602383611b97565b915061290b826128a4565b604082019050919050565b6000602082019050818103600083015261292f816128f3565b9050919050565b7f45524332303a207472616e7366657220616d6f756e742065786365656473206260008201527f616c616e63650000000000000000000000000000000000000000000000000000602082015250565b6000612992602683611b97565b915061299d82612936565b604082019050919050565b600060208201905081810360008301526129c181612985565b9050919050565b7f45524332303a206d696e7420746f20746865207a65726f206164647265737300600082015250565b60006129fe601f83611b97565b9150612a09826129c8565b602082019050919050565b60006020820190508181036000830152612a2d816129f1565b9050919050565b7f45524332303a206275726e2066726f6d20746865207a65726f2061646472657360008201527f7300000000000000000000000000000000000000000000000000000000000000602082015250565b6000612a90602183611b97565b9150612a9b82612a34565b604082019050919050565b60006020820190508181036000830152612abf81612a83565b9050919050565b7f45524332303a206275726e20616d6f756e7420657863656564732062616c616e60008201527f6365000000000000000000000000000000000000000000000000000000000000602082015250565b6000612b22602283611b97565b9150612b2d82612ac6565b604082019050919050565b60006020820190508181036000830152612b5181612b15565b905091905056fea264697066735822122024f113dfb4981da6a9aacdd1164a5fa1d8a2561a77c36f1628e948c70646811f64736f6c634300080b0033",
  "linkReferences": {},
  "deployedLinkReferences": {}
}